:020000040800F2
:10000000B01B0120D5030008819F0008F97F00087C
:100010007D9F000891220008E10401080000000013
:1000200000000000000000000000000015030008B0
:10003000DB2D000800000000710300081DD200083D
:10004000EF030008EF030008EF030008EF030008C8
:10005000D52E0008EF030008EF030008EF030008A7
:10006000EF030008DD2D0008E72D0008EF0300086E
:10007000B9230008C9230008EF030008EF030008B4
:10008000EF030008EF030008EF030008EF03000888
:1000900095220008A5220008EF030008F12D0008B2
:1000A000EF030008EF030008EF030008EF03000868
:1000B000EF030008EF030008EF030008EF03000858
:1000C000EF0300080D800008FD7F000869D00008DC
:1000D00079D0000841DB0008EF03000851DB00087D
:1000E000EF030008EF030008EF030008EF03000828
:1000F000EF03000819D30008EF030008D923000814
:10010000EF030008EF030008EF030008EF03000807
:10011000EF030008EF030008EF030008EF030008F7
:10012000E9230008EF030008F9230008912C0008D8
:10013000EF030008EF030008EF030008EF030008D7
:10014000B5220008C5220008EF030008859F0008BB
:10015000A12C0008B12C0008C12C000875DC000897
:100160002D8000081D800008EF030008EF03000841
:10017000EF030008EF030008EF0300080000000091
:10018000EF030008EF03000800F002F800F0B2F8F7
:100190000AA090E8000C82448344AAF10107DA45E2
:1001A00001D100F0A7F8AFF2090EBAE80F0013F082
:1001B000010F18BFFB1A43F001031847383801003C
:1001C000583801000A444FF0000C10F8013B13F0BE
:1001D000070408BF10F8014B1D1108BF10F8015BA0
:1001E000641E05D010F8016B641E01F8016BF9D193
:1001F00013F0080F1EBF10F8014BAD1C0C1B09D1EA
:100200006D1E58BF01F801CBFAD505E014F8016B5B
:1002100001F8016B6D1EF9D59142D6D370470000ED
:100220000023002400250026103A28BF78C1FBD8FF
:10023000520728BF30C148BF0B6070476E2900F0DD
:100240008182702900F0CB83662913F0C082652972
:1002500013F0BD82672913F0BA82612913F0B982C5
:1002600003681B0A28BF41F08001692900F02E8233
:10027000642900F02B82752900F028826F2900F094
:100280005883782900F09783E92900F0F382E42964
:1002900000F0F082F52900F0ED82EF2900F055839F
:1002A000F82900F096830368DB0928BF41F080013C
:1002B000632901F09D80732901F0A280E32901F0F8
:1002C000AD80F32901F0B280002070471FB513F014
:1002D00074FA01F001F904000020002112F0FEFE82
:1002E000401C60600020002112F0E2FEE0601FBDB3
:1002F00010B510BD01F0C2F81146FFF7E7FF11F08D
:1003000067FA01F09FF903B4FFF7F2FF03BC01F0B5
:10031000E3F900002C4B19680868B0E8F04F80F34F
:100320000988BFF36F8F4FF0000080F3118870478A
:100330000000000008480068006880F308884FF05B
:10034000000080F3148862B661B6BFF34F8FBFF32D
:100350006F8F00DF00BF00BF08ED00E0DFF80C008A
:10036000016841F470010160704700BF88ED00E052
:10037000EFF30980BFF36F8F134B1A681EF0100F55
:1003800008BF20ED108A20E9F04F106009B44FF04B
:10039000500080F31188BFF34F8FBFF36F8F12F0BF
:1003A000C1FB4FF0000080F3118809BC1968086890
:1003B000B0E8F04F1EF0100F08BFB0EC108A80F3C9
:1003C0000988BFF36F8F704794000020EFF305801A
:1003D000704700000948804709480047FEE7FEE7EC
:1003E000FEE7FEE7FEE7FEE7FEE7FEE7FEE7FEE7E5
:1003F00004480549054A064B7047000005D300082C
:1004000089010008B07B0020B01B0120B0CB002088
:10041000B0CB002053EA020C00F069802DE9F04BCC
:100420004FF00006002B1FBFB3FA83F503FA05F463
:1004300024FA05F65E4012BF1643B2FA82F502FABC
:1004400005F4C5F120051EBF22FA05FC44EA0C04A0
:10045000203556EA044C4FEA144418BF641C4FF090
:1004600000084FF00009904271EB030C39D30029CA
:1004700019BFB1FA81F701FA07F6B0FA80F700FA6E
:1004800007F6C7F120071EBF20FA07FC46EA0C0654
:100490002037B6FBF4FCA7EB0507103F07F01F0B56
:1004A000CBF120060CFA0BFB2CFA06F644BFB34640
:1004B0000026202FA4BF5E464FF0000B5BEA060C1F
:1004C00008BF4FF0010B19EB0B09ABFB027C48EBAB
:1004D0000608C01B06FB02CC0BFB03CC71EB0C0126
:1004E000C1E70B46024641464846BDE8F08B13B5CE
:1004F0004FF000004FF00001AFF30080BDE81C405A
:10050000704700007CB51D4616460C00009001D0D7
:100510002044401E074B7B442A46694601903046E2
:1005200000F029F905461CB10020694600F036F9B3
:1005300028467CBD8D02000010B5203AC0F00B802B
:10054000B1E81850203AA0E81850B1E81850A0E8D7
:100550001850BFF4F5AF5FEA027C24BFB1E8185031
:10056000A0E8185044BF18C918C0BDE810405FEAA1
:10057000827C24BF51F8043B40F8043B08BF70471D
:10058000D20728BF31F8023B48BF11F8012B28BF22
:1005900020F8023B48BF00F8012B70474FF00002E3
:1005A00000B5134694469646203922BFA0E80C5069
:1005B000A0E80C50B1F12001BFF4F7AF090728BF44
:1005C000A0E80C5048BF0CC05DF804EB890028BFC0
:1005D00040F8042B08BF704748BF20F8022B11F0E9
:1005E000804F18BF00F8012B704770477047704765
:1005F00010B500F0C3FA006810BD10B5044600F055
:10060000BDFA046010BD70B5044685690068C10676
:1006100001D5302600E02026C00707D070BDD4E900
:10062000012130469047206A401C20626D1EF6D59D
:1006300070BD70B5044685690078C00707D170BDEC
:10064000D4E9012120209047206A401C20626D1EC1
:10065000F6D570BD09684A0501D540B27047C90595
:10066000FCD500B2704709684A0501D5C0B2704791
:10067000C905FCD580B2704770B50C460546012A05
:1006800005D02878800600D5EA69002302E001231E
:1006900005E05B1C934202D2E05C0028F9D1A86916
:1006A000E618C01AA861286A184428622846FFF78D
:1006B000AAFF04E0D5E9012114F8010B9047B442E8
:1006C000F8D32846FFF7B5FF70BD00002DE9F041D3
:1006D0000646002410687529314616A510D0FFF78C
:1006E000B9FF002802DA404213A507E031688A0703
:1006F00001D512A502E0490704D511A5012401E0A6
:10070000FFF7B1FF00210A2206F1240709E0B0FB40
:10071000F2FCB0FBF2F302FB1C00303078541846B8
:10072000491C0028F3D123462A463046BDE8F04153
:1007300000F06DBA000000002D0000002B0000004A
:100740002000000011680268006A530501D5087096
:100750000AE0D30501D5088006E0130603D5C217C9
:10076000C1E9000200E008600120704701694A1CED
:1007700002610878704700B58FB0CDE901310021E2
:10078000059105497944CDE903101146684600F00A
:1007900031F90FB000BD0000E5FFFFFF0A6802F865
:1007A000010B0A607047D1E900239A4202D2531C20
:1007B0000B601070704700002DE9FF5F15468A46F8
:1007C0000446DFF8AC80F8440027D8E900103E4624
:1007D000CDE9001010E03AF816106A4602A800F0C1
:1007E00029FE411C07D02178890603D5E269391812
:1007F00091420DD80744761C2078800602D5E06926
:10080000B84205DDAE42E6DB3AF816000028E2D138
:10081000A069C01BA0612046FFF7F5FED8E90010D3
:10082000CDE90010002017E03AF818106A4602A837
:1008300000F000FEB0F1FF3F81460BD000250DF126
:10084000080B05E0D4E901211BF8050090476D1C59
:100850004D45F7D308F10100B0428046E4DB206A41
:10086000384420622046FFF7E4FEBDE8FF9F000009
:10087000DA3001002DE9F0418046D21D22F0070256
:100880000025D2E90002F52915A614D0011E72F147
:10089000000106DA0023D0EB030063EB020211A68D
:1008A00008E0D8F800108B0701D50FA602E0490731
:1008B00001D50EA601251146002408F1240704E005
:1008C00000F060F930323A55641C50EA0102F7D169
:1008D0002B46324621464046BDE8F04100F097B92C
:1008E000000000002D0000002B0000002000000090
:1008F00030B4002100F1240408E002F00705D2081A
:10090000303542EA4372DB086554491C52EA03055C
:10091000F3D10468002310A2250707D5A40600D44C
:1009200021B1C46901230DA2641EC46130BC00F072
:100930006EB910B5044621461068FFF794FE0246D2
:100940002046BDE810400023D2E7D21D22F0070167
:10095000D1E90023CCE700000000000030000000D7
:10096000F0B40D460188090502D5214C7C4402E013
:100970001F4C7C440E34002100F1240608E002F0F4
:100980000F071209E75D42EA03721B097754491CFD
:1009900052EA0307F3D102780023120704D5702D21
:1009A00006D009B1022311342246F0BC00F02FB961
:1009B00001231034F8E770B504460D46214610684F
:1009C000FFF751FE024629462046BDE8704000234D
:1009D000C6E7D21D22F00703D3E90023C0E703686E
:1009E000126843F0200303600823C3610023B7E7C4
:1009F0003C2F01002DE9F05F894604464FF0000AC4
:100A0000DFF874B1FB44C0F820A02046E1688847B5
:100A1000002874D0252806D0D4E901219047206A07
:100A2000401C2062F1E700265F462046E1688847C7
:100A30002028054607DB312D05D2781910F8200C47
:100A400008B10643F1E7B00701D526F00406C4F863
:100A50001CA00027C4F818A02A2D09D0284610F0A1
:100A600081F938B304EB8708303DC8F8185019E015
:100A700059F8041B204604EB87029161E16888471E
:100A8000012F054618D1E069002820DA26F020065B
:100A90001DE0D8F8180000EB800005EB400030386E
:100AA000C8F818002046E1688847054610F05AF952
:100AB0000028EED1012F0AD02E2D08D12046E16862
:100AC00088477F1C0546022F46F02006C4DBA0693C
:100AD000002803DA404246F00106A061F00701D089
:100AE00026F010066C2D0BD0682D09D04C2D39D076
:100AF0006A2D35D0742D35D07A2D33D016E038E0FC
:100B0000E1682F4620468847B842054609D16C2F38
:100B100026D04FF48060E1680643204688470546AA
:100B200004E06C2F1AD04FF4807006430DB3A5F18A
:100B30004100192802D8203546F400664A46294665
:100B4000204626604E46FFF779FB80B101280BD086
:100B5000F61D26F0070000F1080956E74020E4E7FB
:100B60008020D8E70020D6E706F104094DE72846A3
:100B700052E7206ABDE8F09FCC2E01000048704784
:100B8000507B002030B5B0F10A024FEA900E71F1AF
:100B900000034EEA817EB0EB0E0061EB91014FEA5B
:100BA000101E4EEA017E10EB0E0041EB11114FEAD0
:100BB000102E4EEA016E10EB0E0041EB11214FEAB0
:100BC000104E4EEA014E10EB0E0041EB1141401861
:100BD00041F100014FEAD00040EA41704FEAD101F3
:100BE00010EB80054FEA810444EA907444EB010461
:100BF0006D1944EB0404521BA3414FF0000348BF9E
:100C00000A3200D530BD401C41F1000130BD2DE954
:100C1000F0470D4699469246044600F124080168C3
:100C2000880604D5E06921F01001216000E0012070
:100C3000A84201DD471B00E00027A1697A1902EBF9
:100C40000900081AA0612078C00602D42046FFF7E8
:100C5000DAFC002608E0D4E901211AF806009047E2
:100C6000206A401C761C20624E45F4DB2078C006CA
:100C70000AD52046FFF7C7FC06E0D4E90121302061
:100C80009047206A401C2062381EA7F10107F4DC5F
:100C900007E0D4E9012118F805009047206A401CBC
:100CA0002062281EA5F10105F3DC2046FFF7C1FCF8
:100CB0002078000602D50220BDE8F0870120FBE77E
:100CC00070472DE9FF4F0C461E464FF0FF378BB0A3
:100CD000D2E90001DDF860800A908A46C1F30A5526
:100CE00005B93D46002108464FF00000BAF1000F5B
:100CF00000F4400005DA00EB80004FF4400101EA07
:100D000050004FEA9059B9F1010F00DDB9460A9839
:100D100050EA4A000ED044F61050A5F2FF35454384
:100D20002F14B8F1000F1ED07542291E1EDDC9F127
:100D300000021CE0B8F1010F4FF0000001D030219B
:100D400003E0F24305E02154401CB042FBDB304697
:100D50000022002121540B99C1F80880C1E900202C
:100D60000FB0BDE8F08FBD1B6D1CDEE74A4600DA10
:100D7000694206A800F0F4FB06AB93E8070003AB5A
:100D800083E8070050460A9900F0ADFC8DE80700A3
:100D9000A0F500501F3800900398002D0ADD42F2A4
:100DA0001F014A460844002303A90390684600F047
:100DB00016FF09E0A0F500504A461F38002303A99A
:100DC0000390684600F020FF8DE807000004000C47
:100DD00003D04FF0FF30410800E01046B8F1000F9B
:100DE00003D00022009215461EE0751E05D4FFF7C1
:100DF000C9FE303262556D1EF9D5B3460122084353
:100E000002D000227F1C04E02078302801D100228B
:100E10007F1E002A099784D01DE0112D07DAFFF705
:100E2000B1FE303262556D1C50EA0102F5D1084323
:100E300002D00098C8B10EE00021681E05E0235CD6
:100E4000625C63542254401E491C8142F7DBAB466E
:100E5000A81B401E0990002004F80B000B98099A6B
:100E6000C0F80880C0E9002B7AE711264FF000088F
:100E700057E72DE9F04F88460446D21D22F00701BE
:100E800091B0D1E90001CDE90A010FF02BFB024638
:100E90000B98C00F01D02D2007E02068810701D5F5
:100EA0002B2002E0202101EAC000032A099001D092
:100EB000072A05DB03464146204600F011FB0BE103
:100EC0002078800601D5E06900E00620B8F1650FC2
:100ED000814606D0B8F1660F18D0B8F1670F70D10F
:100EE00031E00020B9F1110F009001DB112301E086
:100EF00009F101030AAA01A90CA8FFF7E2FEDDE946
:100F00000C70002609F10105834647E001204B469D
:100F100000904FF000470AAA01A90CA8FFF7D1FEE4
:100F2000DDE90DB00C995D46002610B909F101000C
:100F30000D18B9EB050003D4C0F1FF3609F1010526
:100F4000A5EB09002BE0B9F1010F01DA4FF001091F
:100F50000020B9F1110F0090484601DD112300E097
:100F600003460AAA01A90CA8FFF7ABFEDDE90C7045
:100F70004D4600268346207800070AD4AB4500DAA8
:100F80005D4601A8012D04DD411911F8011C30292D
:100F900007D04F4502DA17F1040F04DA0120824628
:100FA0000FE06D1EEEE7002F02DCED1B3E4403E078
:100FB000781CA84200DD7D1CB81B00F1010A4FF02F
:100FC00000472078000703D4AA4501DB4FF0FF3A21
:100FD0000021B7F1004F0DF143088DF8431024D0E4
:100FE00002202B23002F01DA7F422D230A21021E2B
:100FF000A0F1010000DC5FB197FBF1FC97FBF1F27F
:1010000001FB1C7C17460CF1300C08F801CDEEE713
:10101000A8F1010003702188090501D5452100E0F0
:101020006521A0F1010800F8011C09980FA9A1EBA6
:101030000807FF1D00B10120411901EBEA70A16909
:101040003844081A401EA0612078C00602D4204609
:10105000FFF7D9FA099828B1D4E901219047206A0D
:10106000401C20622078C00622D52046FFF7CBFA2C
:101070001EE0002E04DBB34502DD01A8805D00E028
:101080003020D4E901219047206A401C2062761C60
:10109000AAF101005FEA000A0AD100F01DFAC06857
:1010A0000168405CD4E901219047206A401C20621D
:1010B000281EA5F10105DCDC07E0D4E9012118F8C0
:1010C000010B9047206A401C2062381EA7F10107DF
:1010D000F3DC2046FFF7ADFA032011B041E6000033
:1010E0002DE9F04F04460D46D21D22F0070089B0CD
:1010F000D0E90097484639460FF0F4F90246F80F58
:1011000001D02D2307E02068810701D52B2302E0C1
:10111000202101EAC0038DF820300BB1012000E04E
:101120000020032A824601D0072A04DB29462046F4
:1011300000F0D6F93FE12078800601D40D2500E0CB
:10114000E569C7F30A560D2D49DA00214FEA175B0E
:1011500008464FF00000002F00F4400007DA00EBD3
:1011600080004FF4400100EBD07001EA600081156F
:10117000012901DD4FF0FF3100224FEA850CBCF15F
:10118000180F06D31346ACF118004FF08052C2403E
:1011900003E04FF4801323FA0CF30CF10C0CBCF1B8
:1011A000200F04D3ACF1200C09FA0CF001E007FA8F
:1011B0000CF000294FF0004801DD18B90FE00ED106
:1011C00040450CD319EB02095F4121B9404502D1DA
:1011D0009F4329EA0209BBEB175F00D0761C2088E9
:1011E000000502D57B48784402E07A4878441938F3
:1011F00008AA302302F80A30037C0AF10101002E0C
:101200000AF1020A53546A4602DC4FF0300101E051
:101210004FF031014FF001088DF8001002D0A6F216
:10122000FF3603E059EA470100D06B4E002D02DC87
:101230002178090704D54FF002082E218DF80110FE
:10124000C44600210BE0C7F303433F01C35C491CC4
:101250006D1E02F80830052908F1010801DA002D99
:10126000F1DC00210CE000EB1973491C1B786D1EAA
:10127000082902F808304FEA091908F1010801DAD3
:10128000002DF0DC21688B0602D516E0A8F10108DC
:10129000E04505DD02EB080313F8013C302BF5D0E7
:1012A000B8F1000F09DD02EB080313F8013C2E2B07
:1012B00003D1090701D4A8F10108002D05DD3E2165
:1012C00002F808106D1E08F10108407C002E02F89B
:1012D000080008F1010804DA2D20764202F808001F
:1012E00002E02B2002F808000A214FF47A708642AF
:1012F00008F101080BDB96FBF0F3303302F80830FD
:1013000096FBF0F308F1010800FB136601E0642E80
:101310000CDB642096FBF0F3303302F8083096FBC8
:10132000F0F308F1010800FB136601E00A2E06DB6A
:1013300096FBF1F0303002F8080008F1010896FB46
:10134000F1F001FB1060303002F80800A16908F1EB
:10135000010808EB050202EB0A00081AA0612078D8
:10136000C00602D42046FFF74EF9216A08AE01EB11
:101370000A00206204E0D4E9012116F8010B90472D
:10138000BAF1010AF7D22078C00602D52046FFF74D
:101390003AF96E4609E016F8010B3E280FD0D4E961
:1013A00001219047206A401C2062B8F10108F2D266
:1013B0002046FFF73EF909B00320BDE8F08F206A10
:1013C0002844206203E0D4E90121302090476D1EBB
:1013D000EBD3F8E73127010002FCFFFF10B54369AA
:1013E00013B1AFF3008001E0FFF746F9012010BD13
:1013F000127800F124010A7000224A700122EDE700
:1014000011684FF0FF32E9E710B5436913B1AFF34C
:10141000008001E0FFF7D0F9012010BD128800F133
:10142000240182840022C2840122EDE711684FF07A
:10143000FF32E9E770B516460C46054600F044F861
:10144000036893F80101012806D0FF2C0FD8185D1E
:1014500068B101202C7070BDD3F8070132462146D7
:1014600003F2071303442846BDE8704018474FF0C5
:10147000FF3070BD00487047507B00207546FFF775
:10148000F9FFAE4605006946534620F00700854641
:1014900018B020B5FEF7ACFFBDE820404FF00006C5
:1014A0004FF000074FF000084FF0000B21F007014C
:1014B000AC46ACE8C009ACE8C009ACE8C009ACE88F
:1014C000C0098D467047000010B500F005F8001DFA
:1014D00010BD00BF091C010000487047707B002050
:1014E0002DE9F0411F46044603260168072A01F44E
:1014F000006004DB08B116A505E016A503E008B1FD
:1015000015A500E015A521F010002060A069C01EFF
:10151000A0610FB1401EA0612046FFF774F84FB1E3
:10152000D4E9012138469047206A401C2062C01C43
:10153000206206E0206AFAE7D4E9012115F8010BE0
:101540009047761EF8D22046FFF773F8BDE8F08189
:101550004E414E006E616E00494E4600696E660057
:101560002DE9F047814616468AB0354878440DC8C3
:101570008DE80D0032487844801C03AC0DC884E827
:101580000D0041F69B300844372190FBF1F290FBAF
:10159000F1F5A5F1800501FB12041B3C02D5644264
:1015A000012000E00020DFF898A080460027FA44E0
:1015B000AAF1BE0A0EE0E0070AD03246684607EB01
:1015C000470101230AEB810100F01EFB8DE80700B3
:1015D00064107F1C002CEED1194F7F44AE3F19E000
:1015E000E80715D007EB04100DF1180A90E80E007B
:1015F0008AE80E00C068F04201D19819089032467E
:10160000012306A903A800F0FFFA03AB83E8070053
:101610006D10641C002DE3D14FF001033246694682
:10162000B8F1000F03A802D000F0D9FA01E000F0F1
:10163000EBFAC9E90001C9F808200AB0BDE8F08753
:101640003C24010010B50446AFF300802046BDE8FD
:101650001040FEF758BE00004FF0013C50F8042B3C
:1016600051F8043B9A4221D1A2EB0C03934313EAB5
:10167000CC1317D150F8042B51F8043B9A4215D1E2
:10168000A2EB0C03934313EACC130BD150F8042BB9
:1016900051F8043B9A4209D1A2EB0C03934313EA9D
:1016A000CC13DBD04FF00000704700BFD01A01BA56
:1016B000B1FA81F101F0180122FA01F0CB40C1F139
:1016C0002001DBB2C0B2C01A2CFA01F3D11A914347
:1016D00011EAC311E6D1704701491820ABBEFEE7FD
:1016E0002600020070475FEA400C08BF91F0000F2F
:1016F0004FEA8C234FEAC12243EA51514FEA1C5072
:1017000018BF00F5F0404FEA300018BF41F000412B
:101710005FEA6C5C00F02980BCF1FF3F08BF40F03D
:1017200080407047130C06BF12044FF0100C4FF0AE
:10173000000C130E04BF12020CF1080C130F04BFAF
:1017400012010CF1040C930F04BF92000CF1020C77
:10175000D30F04BF52000CF1010C11464FF00002F0
:10176000A0F11F00A0EB0C00704711F0004F08BF64
:10177000704731F000413FF4D5AF0B0C06BF0904B0
:101780004FF0100C4FF0000C0B0E04BF09020CF1CF
:10179000080C0B0F04BF09010CF1040C8B0F04BFE4
:1017A00089000CF1020CCB0F04BF49000CF1010CB5
:1017B000CCF12003A0EB0C0022FA03F302FA0CF2A6
:1017C00041EA030100F10100704720F07F4C80EAFC
:1017D000030023F07F47ACEB070303F57C5300F0D5
:1017E000004003F1FF032DE980494FEA154B09B48E
:1017F0004FEA144325EA0B4E24EA03480FF204266D
:1018000006EB132749083E785FEA320203FB0667BE
:10181000C7F5000707FB06F64FEA54374FEAD646EE
:1018200006F1020607FB066CCCF1005C4FEA1C4790
:101830002CEA074C07FB06F40CFB06F504EB1546F7
:101840004FEA961634BF00204FF000404FEAD137E0
:1018500006FB07FC4FEA1C4C0CFB0BF7D21B03FBEF
:101860000CF761EB07010CFB0EF7B0EB074072EBD6
:1018700017420CFB08F734BFA2EB0742B2EB07425A
:1018800061EB17414FEA0C444FEA910706FB07FC56
:101890004FEA1C4C0CFB0BF7B0EBC74072EB573216
:1018A00003FB0CF734BFA2EBC742B2EBC74261EBBC
:1018B00057310CFB0EF7B0EBC70072EB57720CFB05
:1018C00008F734BFA2EBC702B2EBC70261EB577156
:1018D000039F4FEA816141EA921104EBCC044FEA85
:1018E000D1374FEA826206FB07FC42EA90124FEAC8
:1018F00080604FEA1C4C0CFB0BF7D21B03FB0CF770
:1019000061EB07010CFB0EF7B0EB074072EB1742DF
:101910000CFB08F734BFA2EB0742B2EB074261EBC6
:1019200017414FEA8C554FEA910704EB9C2406FBC4
:1019300007FC4FEA1C4C0CFB0BF7B0EBC74072EBFB
:10194000573203FB0CF734BFA2EBC742B2EBC742DE
:1019500061EB57310CFB0EF7B0EBC70072EB57721F
:101960000CFB08F734BFA2EBC702B2EBC70261EB76
:10197000577115EB4C254FEA816141EA92114FEA0C
:1019800082624FEAD13742EA901206FB07FC44F12B
:1019900000044FEA80604FEA1C4C0CFB0BF7D21B93
:1019A00003FB0CF761EB07010CFB0EF7B0EB0740F4
:1019B00072EB17420CFB08F734BFA2EB0742B2EB05
:1019C000074261EB174115EB1C154FEA813141EAE3
:1019D00092414FEA823242EA90424FEA80304FEA27
:1019E0000C7644F1000448EA03434EEA0B484FF0FA
:1019F000000EB2EB080C71EB030724BF62463946B8
:101A00004EEB0E0E4FF0000B0018524149414BEBCC
:101A10000B0BB2EB080C71EB03077BF1000B24BF3F
:101A2000624639464EEB0E0E4FF0000B0018524145
:101A300049414BEB0B0BB2EB080C71EB03077BF14D
:101A4000000B24BF624639464EEB0E0E51EA0207E8
:101A500018BF46F0010616EB0E7655F1000254F160
:101A6000000103D5BDE88901BDE80088BDE8890112
:101A7000BDE80048B619524141EB0101A3F1010351
:101A8000704780807F7E7D7C7B7A797877767675EB
:101A90007473727171706F6E6E6D6C6C6B6A6A6963
:101AA0006868676666656464636362616160605FFD
:101AB0005F5E5E5D5D5C5C5B5B5A5A595958585776
:101AC00057565655555554545353525252515150DE
:101AD00050504F4F4F4E4E4D4D4D4C4C4C4B4B4B31
:101AE0004A4A4A4949494848484747474746464677
:101AF00045454544444444434343434242424241B2
:101B00004141002B9C4630D477002BD01CB54FEAC6
:101B1000370703B44FF010004FF01001BAF1000F77
:101B200006D0BCF1000FDCBF40F0080040F0080117
:101B30004FF000000FBCBDE810400BF1010BBBF1F2
:101B4000010F08BF5FEA170722BF12F1010211F16E
:101B500001014FF0004143F1000300F0004043EA6F
:101B600000007047F9D35708D0E746EA064613F15C
:101B7000400F4FEA16461FDD13F1200FDFBF16435B
:101B80000A46002120335B42BED0C3F1200746EA5B
:101B9000064602FA07F74FEA164646EA0706C3F179
:101BA000200722FA03F201FA07F721FA03F14FF0B6
:101BB000000342EA0702A7E746EA020646EA0646AB
:101BC0004FEA164646EA0106BCBF46EA0646360C10
:101BD0004FF000034FF000024FF0000194E72DE9B1
:101BE000804C9A46934670B491E8380007C831EAB1
:101BF000400C48BF34EA430C03D5FFF7E6FDFFF77E
:101C000080FFF0BCBDE8008C2DE9804C9A469346DD
:101C100070B491E8380007C810F0804F08BF13F087
:101C2000804F03D100F005F8FFF76BFFF0BCBDE873
:101C3000008C20F07F4780EA030023F07F4C07EB05
:101C40000C03A3F57C5300F00040A3F1FE0392F0D7
:101C5000000F00F0B38095F0000F00F077802DE9C1
:101C600001494FEA11404FEA144621EA004800FBBF
:101C700006FC24EA064708FB06F607FB08F800FB0B
:101C800007F718EB06484CEB164C4FEA124B18EBD3
:101C900007484FEA15464CEB174022EA0B4E0BFB68
:101CA00006FC25EA06470EFB06F607FB0EFE0BFBBD
:101CB00007F71EEB064E4CEB164C4FF000061EEBE2
:101CC000074E4CEB174B18EB0B0840F1000018EBDC
:101CD0000E0B58EB000840F100008F1A4FF0000186
:101CE0003CBFC943661B14BFB5EB040C00213CBFCD
:101CF000C943F61B4FEA17444EEA8E0E27EA044505
:101D00004FEA1C4704FB07622CEA074C05FB07F768
:101D10000CFB05F604FB0CFC16EB074642EB1742E6
:101D200016EB0C4642EB1C421BEB060658EB02027C
:101D3000414146EA9E0601D5BDE80189B6195241E6
:101D400041EB0101A3F10103BDE801894FEA14450C
:101D50004FEA114724EA054621EA074C05FB07F440
:101D600006FB07F70CFB06F105FB0CFC11EB07412A
:101D700044EB17444FEA124711EB0C4144EB1C446F
:101D800022EA074C05FB07F206FB07F70CFB06F6F9
:101D900005FB0CFC16EB074642EB174216EB0C4614
:101DA00042EB1C456A1854F1000148BF7047B61950
:101DB000524141EB0101A3F10103704795F0000F7F
:101DC00037D04FEA11424FEA144721EA024624EA8B
:101DD000074C02FB07F106FB07F70CFB06F402FBBE
:101DE0000CFC14EB074441EB17414FEA154714EB89
:101DF0000C4441EB1C4125EA074C02FB07F506FBAE
:101E000007F70CFB06F602FB0CFC16EB074645EB4E
:101E1000174516EB0C4645EB1C42121951F1000117
:101E200048BF7047B619524141EB0101A3F10103CC
:101E300070474FEA14454FEA114724EA054621EA64
:101E4000074C05FB07F106FB07F70CFB06F24FF00A
:101E5000000605FB0CFC12EB074241EB174112EBAD
:101E60000C4251EB1C4148BF7047921841EB0101F5
:101E7000A3F101037047000055494A6822F440323B
:101E80004A604A6843681A434A600268526822F40A
:101E9000807203685A6002685368026943EA02224A
:101EA00003685A600268526822F0407203685A6000
:101EB0000268526883681A4303685A60026892682D
:101EC00022F4006203689A6002689268C3681A4349
:101ED00003689A603F4B826A9A4218D002689268FF
:101EE00022F0706203689A6002689268836A1A43FB
:101EF00003689A600268926822F0405203689A6010
:101F000002689268C36A1A4303689A600BE0026829
:101F1000926822F0706203689A600268926822F008
:101F2000405203689A600268926822F002020368D5
:101F30009A6002689368027E43EA420203689A60EC
:101F40002022125CA2B10268526842F40062036867
:101F50005A600268526822F4604203685A6002685C
:101F60005368426A521E43EA423203685A6005E0EF
:101F70000268526822F4006203685A600268D26AFA
:101F800022F470020368DA620268D36A828B521EFE
:101F900043EA02520368DA620268926822F400722D
:101FA00003689A600268936890F8302043EA4222FE
:101FB00003689A600268926822F4806203689A60FB
:101FC00002689368426943EA822203689A60704714
:101FD000002301400100000FB7EE000A80ED000A67
:101FE0009FED060A80ED010A9FED040A80ED020ACA
:101FF0009FED020A80ED030A704700000000000018
:1020000070B52DED028B0646B0EE408A0C461546A3
:1020100095ED023AF0EE432A95ED013AB0EE432AEF
:1020200095ED003AF0EE431A94ED023AB0EE431A01
:1020300094ED013AF0EE430A94ED003AB0EE430A13
:10204000304607F01DFEBDEC028B70BD10B50122BD
:102050001021024802F052FB10BD000000000240B7
:1020600010B500221021024802F048FB10BD00000C
:10207000000002407047000010B5012211460248DE
:1020800002F03CFB10BD00000004024010B500222D
:102090000121024802F032FB10BD000000040240A2
:1020A00010B543781B021BB20478234300EE103AAC
:1020B000B8EEC01A1C4BD3ED001A21EE211A81EDA7
:1020C000001AC3781B021BB28478234300EE103A37
:1020D000B8EEC01A144BD3ED001A21EE211A81ED8F
:1020E000011A43791B021BB20479234300EE103A14
:1020F000B8EEC01A0C4BD3ED001A21EE211A81ED77
:10210000021A037A1B04C47943EA04238479234323
:1021100000EE903AB8EE601ADFED041A21EE211AB3
:1021200082ED001A10BD0000F001002000401C42AA
:10213000704710B5044620460FF00CFC10BD10B5DA
:10214000044620460FF03EF910BD0000427812020E
:1021500012B203781A4300EE102AF8EEC00A144AAD
:1021600092ED001A60EE810AC1ED000AC2781202F7
:1021700012B283781A4300EE102AF8EEC00A0C4A15
:1021800092ED001A60EE810AC1ED010A4279120255
:1021900012B203791A4300EE102AF8EEC00A044A7C
:1021A00092ED001A60EE810AC1ED020A704700004C
:1021B000F401002010B50024FFF75CFFFFF7B8FF23
:1021C0000EF072FE10B144F0800402E00EF0D2FD79
:1021D00004430FF061F810B144F0400402E00EF047
:1021E000E1FF0443204610BD70B506460C46154677
:1021F00046F0800000F018F806E0552000F014F8D2
:102200002070641C681EC5B2002DF6D170BD70B57B
:1022100004460D4644F0800000F006F8552000F01A
:1022200003F8287070BD000001B582B04FF47A70D9
:10223000012301AA02A90090024804F0FDFC9DF8C8
:1022400004000EBD1407002010B502461378DB0011
:10225000547843EA6410B0F5806F02DBA0F50063A8
:1022600018B200EE100AF8EEC00AB4EE001AB3EE8F
:10227000070A00EE810A81ED000A10BD70B505461F
:102280000C462846FFF7D0FF2046FFF7CDFF70BD74
:1022900000BFFEE710B5024801F0AFF910BD000025
:1022A0001805002010B5024801F0A7F910BD000084
:1022B0001805002010B5024801F09FF910BD00007C
:1022C0004005002010B5024801F097F910BD00004C
:1022D00040050020F8B507460C4615461E464FF44B
:1022E00000700D49086000208860C86008200861FF
:1022F000380A0A4908704F70200A8870CC70280A82
:1023000008714D71300A8871CE716B460A460249D8
:10231000034800F072FFF8BD5C7A0020E60100205F
:10232000180500200346042B15D007DC7BB1012BD8
:102330000ED0022B0DD0032B12D10BE0202B0BD093
:10234000212B0AD0222B09D0232B09D107E008E04A
:1023500007E006E005E004E003E002E001E000E061
:1023600000BF00BF002070470020704710B500225A
:10237000044905480BF01FFF044903480BF00CFF0C
:10238000002010BD84200020A40C00208418002010
:1023900070B504460D46214603480BF0FDFE024889
:1023A0000BF0C6FE002070BDA40C002010B5034643
:1023B0000C460021084610BD10B5024801F0D4FDBE
:1023C00010BD0000840B002010B5024801F0CCFDC8
:1023D00010BD00002406002010B5024801F0C4FD25
:1023E00010BD00008406002010B5024801F0BCFDBD
:1023F00010BD0000C407002010B5FE48C06C006886
:10240000FD49884276D9FC4854380068F949C96CBE
:102410000968FA4A914201D1202169E0F549C96C65
:102420000968F54A483A914201D1202160E0F1491A
:10243000C96C0968F14A6032914201D1202157E00C
:10244000EC49C96C0968EC4A1832914201D120214B
:102450004EE0E849C96C0968E84A1832914201D156
:10246000C91445E0E349C96C0968E34A303A91422E
:1024700001D1C9143CE0DF49C96C0968DF4A7832F0
:10248000914201D1C91433E0DA49C96C0968DA4ACA
:102490003032914201D1C9142AE0D649C96C096889
:1024A000D64A3032914202D14FF4001120E0D14996
:1024B000C96C0968D04A183A914202D14FF4001110
:1024C00016E0CC49C96C0968CC4A9032914202D1DD
:1024D0004FF400110CE0C749C96C0968C64A48327C
:1024E000914203D14FF4001102E003E04FF000618C
:1024F000084070E1BF48C06C0068C049A8318842FC
:1025000076D9BD4858380068BA49C96C0968BB4AD1
:10251000914201D1202169E0B649C96C0968B64AE7
:10252000483A914201D1202160E0B249C96C096862
:10253000B24A6032914201D1202157E0AD49C96CC5
:102540000968AD4A1832914201D120214EE0A949D3
:10255000C96C0968A94A1832914201D1C91445E0F1
:10256000A449C96C0968A44A303A914201D1C914FE
:102570003CE0A049C96C0968A04A7832914201D177
:10258000C91433E09B49C96C09689B4A30329142B7
:1025900001D1C9142AE09749C96C0968974A3032B9
:1025A000914202D14FF4001120E09249C96C0968B0
:1025B000914A183A914202D14FF4001116E08D4928
:1025C000C96C09688D4A9032914202D14FF40011D2
:1025D0000CE08849C96C0968874A4832914203D1A6
:1025E0004FF4001102E003E04FF000610840F2E018
:1025F0008048C06C006881494831884276D97F485C
:10260000103840687B49C96C09687C4A914201D105
:10261000202169E07749C96C0968774A483A9142B4
:1026200001D1202160E07349C96C0968734A6032A6
:10263000914201D1202157E06E49C96C09686E4A68
:102640001832914201D120214EE06A49C96C0968D3
:102650006A4A1832914201D1C91445E06549C96CF2
:102660000968654A303A914201D1C9143CE0614998
:10267000C96C0968614A7832914201D1C91433E0CA
:102680005C49C96C09685C4A3032914201D1C91475
:102690002AE05849C96C0968584A3032914202D13F
:1026A0004FF4001120E05349C96C0968524A183AA6
:1026B000914202D14FF4001116E04E49C96C0968ED
:1026C0004E4A9032914202D14FF400110CE0494938
:1026D000C96C0968484A4832914203D14FF400114D
:1026E00002E003E04FF00061084074E04348103816
:1026F00000684049C96C0968404A914201D12021D3
:1027000068E03C49C96C09683B4A483A914201D1AA
:1027100020215FE03749C96C0968384A603291422C
:1027200001D1202156E03349C96C0968324A183278
:10273000914201D120214DE02E49C96C09682F4AF0
:102740001832914201D1C91444E02A49C96C096880
:10275000294A303A914201D1C9143BE02549C96C5C
:102760000968264A7832914201D1C91432E02149E0
:10277000C96C0968204A3032914201D1C91429E05C
:102780001C49C96C09681D4A3032914202D14FF48C
:1027900000111FE01749C96C0968174A183A91429D
:1027A00002D14FF4001115E01249C96C0968134AAF
:1027B0009032914202D14FF400110BE00D49C96CE7
:1027C00009680D4A4832914202D14FF4001101E0EC
:1027D0004FF00061084000286FD00648C06C0068C8
:1027E000054988427BD90348C06C00680349884288
:1027F00008D105E014070020586402401060024030
:10280000202068E0FE48C06C0068FE49884201D183
:10281000202060E0FA48C06C0068FB49884201D182
:10282000202058E0F648C06C0068F64960318842C4
:1028300001D120204FE0F248C06C0068F2494839CD
:10284000884201D1C01446E0ED48C06C0068ED49F3
:102850001831884201D1C0143DE0E948C06C0068DD
:10286000E9491831884201D1C01434E0E448C06C11
:102870000068E4497831884201D1C0142BE0E04877
:10288000C06C0068E0493039884202D14FF4001032
:1028900021E0DB48C06C0068DA493031884202D15F
:1028A0004FF4001017E0D648C06C0068D6493031AC
:1028B000884204D14FF400100DE0DFE10FE0D04872
:1028C000C06C0068CF499031884202D14FF40010AB
:1028D00001E04FF00060CB49091F08606AE1C84879
:1028E000C06C0068C8494831884274D9C448C06C7B
:1028F0000068C5496039884201D1202066E0C0489F
:10290000C06C0068BF49884201D120205EE0BC480D
:10291000C06C0068BC49884201D1202056E0B8480C
:10292000C06C0068B7496031884201D120204DE079
:10293000B348C06C0068B4494839884201D1C0141A
:1029400044E0AF48C06C0068AE491831884201D1FC
:10295000C0143BE0AA48C06C0068AB4918318842FB
:1029600001D1C01432E0A648C06C0068A549783196
:10297000884201D1C01429E0A148C06C0068A24976
:102980003039884202D14FF400101FE09C48C06CDF
:1029900000689C493031884202D14FF4001015E0A4
:1029A0009748C06C006898493031884202D14FF492
:1029B00000100BE09248C06C006892499031884248
:1029C00002D14FF4001001E04FF000608D4908394A
:1029D0000860EFE0FFE78A48C06C00688A49183950
:1029E000884274D98648C06C00688749603988423B
:1029F00001D1202066E08248C06C0068814988428D
:102A000001D120205EE07E48C06C00687E4988428B
:102A100001D1202056E07A48C06C006879496031C5
:102A2000884201D120204DE07548C06C006876498D
:102A30004839884201D1C01444E07148C06C006834
:102A400070491831884201D1C0143BE06C48C06C19
:102A500000686D491831884201D1C01432E06848DD
:102A6000C06C006867497831884201D1C01429E000
:102A70006348C06C006864493039884202D14FF421
:102A800000101FE05E48C06C00685E49303188422B
:102A900002D14FF4001015E05948C06C00685A4943
:102AA0003031884202D14FF400100BE05448C06C22
:102AB000006854499031884202D14FF4001001E07F
:102AC0004FF0006050497039C86073E0FFE74C4830
:102AD000C06C00684C496039884201D1202066E012
:102AE0004748C06C00684749884201D120205EE019
:102AF0004348C06C00684449884201D1202056E018
:102B00003F48C06C00683F496031884201D12020B5
:102B10004DE03B48C06C00683B494839884201D1D0
:102B2000C01444E03648C06C006836491831884209
:102B300001D1C0143BE03248C06C00683249183102
:102B4000884201D1C01432E02D48C06C00682D4984
:102B50007831884201D1C01429E02948C06C00684E
:102B600029493039884202D14FF400101FE024482F
:102B7000C06C006823493031884202D14FF4001004
:102B800015E01F48C06C00681F493031884202D1EF
:102B90004FF400100BE01A48C06C006819499031DE
:102BA000884202D14FF4001001E04FF00060164956
:102BB000703988601548007800F0020078B1134839
:102BC000007820F00200114908700846007840F0B3
:102BD00004000870012211460D4801F08FFD0D48D8
:102BE000007800F00200E0B10A48007820F002000E
:102BF000084908700846007840F0040008700BE0AF
:102C00001407002010640240706002404D02002052
:102C1000000402404E02002001221021184801F059
:102C20006DFD1848007800F0020078B11548007872
:102C300020F00200134908700846007840F00400B4
:102C40000870012210210E4801F058FD0EF076FCAC
:102C50000D48007800F0040080B10B48007820F0A7
:102C60000400094908700846007840F00800087020
:102C70000648006840F001000449086010BD0000EB
:102C8000000002404F0200204D020020103C014095
:102C900010B5024801F068F910BD000024080020BA
:102CA00010B5024801F060F910BD0000240B0020AF
:102CB00010B5024801F058F910BD0000440C002086
:102CC00010B5024801F050F910BD0000C40A002000
:102CD0000146087810381823B0FBF3F20848805CEE
:102CE000C865032A05D908686FF30900001D8865C7
:102CF00003E008686FF309008865886D704700007D
:102D000064380108014600208A6A8B69CBB932B168
:102D1000012A0DD0022A03D0032A10D10EE000BFF1
:102D2000CB6A03F08073B3F1807F00D1012007E00C
:102D3000CB6AB3F1C07F00D1012001E000E000BF09
:102D400034E08B69B3F5005F1AD132B1012A07D0A4
:102D5000022A03D0032A11D10AE000BF01200EE0AD
:102D6000CB6A03F08073B3F1807F00D1012006E0CD
:102D7000CB6AB3F1C07F00D1012000E000BF15E0B5
:102D800032B1012A05D0022A04D0032A0CD103E073
:102D900000BF00BF012008E0CB6A03F08073B3F1ED
:102DA000807F00D1012000E000BF00BF704730B538
:102DB0000468246824F4802405682C600468636037
:102DC0008468402C04D10468A2600468E16003E0D8
:102DD0000468A1600468E26030BD704710B5092046
:102DE00001F084FB10BD10B5102001F07FFB10BD79
:102DF00010B5202001F07AFB10BD72B600BFFEE7CF
:102E000010B5002201B909E0012901D10A0205E04B
:102E1000022901D10A0201E04FF440720E4B1B68F7
:102E200023F440730C4C236023461B681343236038
:102E300023461B6823F07803236023461B68022483
:102E400044EAC0042343044C236023461B6843F434
:102E50008033236010BD0000103C02401C48006815
:102E600000F40070B0B11A48006820F400701849EE
:102E7000086000BF0846006840F40060086008462B
:102E8000006820F40060086000BF0846006840F455
:102E9000007008600E48006800F48060B0B10C4813
:102EA000006820F480600A49086000BF0846006896
:102EB00040F4805008600846006820F480500860A4
:102EC00000BF0846006840F480600860704700005A
:102ED000003C024010B501F03DFA10BD23480068E7
:102EE00000F0100040B12248C06940F010002049B5
:102EF000C86110201D4908601C48006800F02000CF
:102F000040B11B48C06940F008001949C861202041
:102F1000164908601548006800F0400040B11448A8
:102F2000C06940F004001249C86140200F490860A0
:102F30000E48006800F0800040B10D48C06940F0C4
:102F400002000B49C86180200849086007480068F2
:102F500000F0020040B10648C06940F0200004497A
:102F6000C861022001490860704700000C3C024023
:102F7000CC28002070B50A480468001D0568001DB3
:102F80000668344454B108220649204606F0DCF8AD
:102F9000042204491031284606F0D6F870BD00001E
:102FA000107AFF1F5600002038B50246002000901E
:102FB00000BF92F83C00012801D1022038BD012059
:102FC00082F83C0000BF0868092816D91068C0685C
:102FD0000C780A3C04EB44050724AC40A043146879
:102FE000E0600C780A3C04EB44048868A040146854
:102FF000E46820431468E06013E0106800690C780E
:1030000004EB44050724AC40A043146820610C780D
:1030100004EB44048868A0401468246920431468C1
:1030200020614868072817D21068406B0C79641E2D
:1030300004EB84051F24AC40A04314686063088837
:1030400080B20C79641E04EB8404A0401468646BA5
:1030500020431468606331E048680D2817D2106877
:10306000006B0C79E41F04EB84051F24AC40A043E3
:1030700014682063088880B20C79E41F04EB840490
:10308000A0401468246B20431468206316E0106885
:10309000C06A0C790D3C04EB84051F24AC40A043AE
:1030A0001468E062088880B20C790D3C04EB84045B
:1030B000A0401468E46A20431468E062194B1A4C7B
:1030C0001068A04206D10868122803D1586840F45D
:1030D00080005860144C1068A0421CD10868102869
:1030E00002D00868112816D1586840F400005860D2
:1030F000086810280FD10D4800680D4CB0FBF4F0A3
:1031000000EB80004000009002E00098401E00901C
:1031100000980028F9D100BF002082F83C0000BFD1
:1031200000BF4BE700230140002001409000002039
:1031300040420F0070B5044600250CB9012070BD57
:103140001549A06A884200D000BF206C30B92046E3
:1031500000F024F80020606484F83C00206C00F04B
:10316000100088B9206C20F4885040F002002064E0
:103170002046FEF781FE00206064206C20F00200F3
:1031800040F00100206400E0012500BF002084F829
:103190003C0000BF2846D2E70100000F08B50A4AEC
:1031A000016891420FD100BF0021009107490968D1
:1031B00041F48071054A11601146096801F480717B
:1031C000009100BF00BF08BD00200140443802400C
:1031D00010B5024692F82030012B01D0022B06D107
:1031E00010684069084314686061002010BD506A8F
:1031F00040F4802050620120F8E7F0B504460D4607
:103200001E4694F8207020688368A86800B900E022
:1032100000BF012F01D0022F7DD103F0806030B9B3
:1032200003F0006018B903F0805000287ED0C3F38B
:103230000161012088403060A86860B9B5F800C01D
:10324000E86840EA4C5C206800F5C07000EB0110B3
:10325000C0F800C00FE0D5E901C040EACC00D5F8C5
:103260000CC040EA0C00D4F800C00CF5C07C0CEB9C
:10327000011CCCF80000D5F810C0206800F5C07023
:1032800000EB0110C0F804C0287D01280ED1206891
:1032900000F5C07000EB0110406840F4807C2068AD
:1032A00000F5C07000EB0110C0F804C0D079000632
:1032B00092F806C040EA0C4092F805C040EA0C20A3
:1032C00092F804C040EA0C00D4F800C00CF5C07CB1
:1032D0000CEB011CCCF80C00D078000692F802C070
:1032E00040EA0C4092F801C040EA0C2092F800C07D
:1032F00040EA0C00D4F800C00CF5C07C0CEB011CBB
:10330000CCF80800206800F5C07000EB01100068E0
:1033100040F0010C01E00FE008E0206800F5C0700B
:1033200000EB0110C0F800C00020F0BD606A40F45E
:10333000001060620120F8E7606A40F4802060625B
:103340000120F2E7F0B504460A4694F82050012D1A
:1033500001D0022D7ED1424901F50071086840F08C
:1033600001000860086820F47C5008600868566A0C
:1033700040EA06200860107D00F01F06012000FAD8
:1033800006F3C8699843C861A1F50071D069C8B94E
:10339000D1F80C029843C1F80C02908880B296894B
:1033A00040EA064601F51070576940F8376010880A
:1033B00080B2168940EA064601F51070576900EBA5
:1033C000C7004660D069012819D1D1F80C02184312
:1033D000C1F80C02908880B2168840EA064601F5D2
:1033E0001070576940F83760908980B2168940EABA
:1033F000064601F51070576900EBC70046609069FA
:1034000028B9D1F804029843C1F8040204E0D1F8C5
:1034100004021843C1F80402106928B9D1F8140253
:103420009843C1F8140204E0D1F814021843C1F81B
:103430001402106A012804D1D1F81C021843C1F803
:103440001C02D1F8000220F00100C1F800020020A7
:10345000F0BDFFE7606A40F4802060620120F7E77A
:1034600000640040704770B5044694F82050012D68
:1034700001D0022D7DD151B92068C06800F0030051
:1034800080B9606A40F400106062012070BD20685D
:10349000006900F0030028B9606A40F4001060621F
:1034A0000120F3E7206800F5D87000EB01100068F8
:1034B00000F004009060906840B9206800F5D87072
:1034C00000EB01100068400D106007E0206800F577
:1034D000D87000EB01100068C0085060206800F54B
:1034E000D87000EB0110006800F00200D060206886
:1034F00000F5D87000EB0110406800F00F000828BC
:1035000002D30820106108E0206800F5D87000EBB5
:103510000110406800F00F001061206800F5D870BD
:1035200000EB0110406800F47F40000A90612068C1
:1035300000F5D87000EB01104068000C5061206865
:1035400000F5D87000EB011080681870206800F555
:10355000D87000EB0110806800F47F40000A5870BA
:10356000206800F5D87000EB0110806800F47F003F
:1035700000E03CE0000C9870206800F5D87000EB8B
:1035800001108068000ED870206800F5D87000EB3C
:103590000110C0681871206800F5D87000EB0110A8
:1035A000C06800F47F40000A5871206800F5D870A8
:1035B00000EB0110C06800F47F00000C98712068D7
:1035C00000F5D87000EB0110C068000ED87131B959
:1035D0002068C06840F020002668F06005E02068A0
:1035E000006940F020002668306100204EE7606AE4
:1035F00040F480206062012048E72DE9F05F044636
:103600000025206846692068D0F804902068876803
:103610002068D0F80CA02068D0F810B02068D0F84E
:10362000188006F00100002855D007F00100C0B155
:1036300001202168886007F0020018B1204600F0E0
:1036400068FB0EE007F0040010B145F4006508E0E7
:1036500007F0080010B145F4805502E0204600F064
:1036600057FB07F48070C8B14FF480702168886000
:1036700007F4007018B1204600F04DFB0EE007F48F
:10368000806010B145F4005508E007F4006010B107
:1036900045F4804502E0204600F03CFB07F4803012
:1036A000C8B14FF480302168886007F4003018B149
:1036B000204600F032FB0EE007F4802010B145F404
:1036C000004508E007F4002010B145F4803502E021
:1036D000204600F021FB06F0080038B10AF0100087
:1036E00020B145F4007510202168C86006F0040080
:1036F00040B10AF0080028B108202168C8602046BF
:1037000000F01CFA06F0020038B12068C06800F032
:10371000030010B1204600F013FA06F0400038B163
:103720000BF0100020B145F480651020216808617D
:1037300006F0200040B10BF0080028B108202168F5
:103740000861204600F0B2FA06F0100038B1206897
:10375000006900F0030010B1204600F0A8FA06F45A
:10376000003040B109F0100028B1102021684860F5
:10377000204600F09DFA06F4803040B109F00800C0
:1037800028B1082021684860204600F0C7FA06F4F6
:10379000004088B309F0040078B306F4807020B1CB
:1037A00008F0010008B145F0010506F4007020B1F1
:1037B00008F0020008B145F0020506F4806020B16F
:1037C00008F0040008B145F0040506F40060A0B15B
:1037D00008F0700088B108F07000402817D006DCAF
:1037E00010280BD020280CD0302819D10CE05028FC
:1037F00010D0602814D110E01DE019E045F0080554
:103800000FE045F010050CE045F0200509E045F01B
:10381000400506E045F0800503E045F4807500E0D2
:1038200000BF00BF2068806920F0700021688861B7
:103830000420216848602DB1606A284360622046F8
:10384000FFF710FEBDE8F09F70B504460CB90120EB
:1038500070BD94F8200010B9204600F0AFF8206841
:10386000006840F001002168086000F04DFF054647
:103870000DE000F049FF401B0A2808D9606A40F4B7
:1038800000306062052084F820000120E0E7206815
:10389000406800F001000028EBD02068006820F0AC
:1038A00002002168086000F02FFF05460DE000F0DF
:1038B0002BFF401B0A2808D9606A40F40030606280
:1038C000052084F820000120C2E72068406800F04D
:1038D00002000028EBD1207E012806D12068006874
:1038E00040F080002168086005E02068006820F052
:1038F000800021680860607E012806D12068006889
:1039000040F040002168086005E02068006820F071
:10391000400021680860A07E012806D12068006868
:1039200040F020002168086005E02068006820F071
:10393000200021680860E07E012806D12068006828
:1039400020F010002168086005E02068006840F061
:10395000100021680860207F012806D120680068D7
:1039600040F008002168086005E02068006820F049
:10397000080021680860607F012806D1206800687F
:1039800040F004002168086005E02068006820F02D
:10399000040021680860D4E9020108432169084352
:1039A000616908436168491E08432168C8610020B5
:1039B0006062012084F82000002049E710B586B03D
:1039C0000446142101A8FCF7E9FD56492068884205
:1039D00049D155480068401C5349086008460068B2
:1039E00001280FD100BF002000905048006840F02F
:1039F00000704E4908600846006800F000700090B2
:103A000000BF00BF00BF0020009048481038006889
:103A100040F008004549103908600846006800F089
:103A20000800009000BF00BF032001900220029018
:103A300000200390032004900920059001A93C4830
:103A400000F062FD00220521142001F077FA142015
:103A500001F060FA00220521152001F06FFA15200F
:103A600001F058FA5CE033492068884258D100BF21
:103A7000002000902D48006840F080602B490860CD
:103A80000846006800F08060009000BF00BF264834
:103A90000068401C244908600846006801280FD1CE
:103AA00000BF002000902148006840F000701F49CE
:103AB00008600846006800F00070009000BF00BF7A
:103AC00000BF0020009019481038006840F0020044
:103AD0001649103908600846006800F0020000909E
:103AE00000BF00BF602001900220029000200390E0
:103AF000032004900920059001A90F4800F004FD5F
:103B000000220521402001F019FA402001F002FABC
:103B100000220521412001F011FA412001F0FAF9BB
:103B200006B010BD00640040140000204038024080
:103B3000000C024000680040000402407047000092
:103B400010B58AB004466B4603AA00212046FFF751
:103B50008AFC08B10AB010BD50492068884241D1A2
:103B600040F201310398884224D19DF801009DF86C
:103B7000001040EA012000B2494908809DF8030086
:103B80009DF8021040EA012000B2454948809DF8A6
:103B900005009DF8041040EA012000B240498880E9
:103BA0009DF807009DF8061040EA012000B23C494C
:103BB000C88070E040F20231039888426BD19DF8D2
:103BC00001009DF8001040EA012000B2344908814C
:103BD0009DF803009DF8021040EA012000B2304930
:103BE000488158E00398A0F20120072851D2DFE86D
:103BF00000F00405060708090A0000BF00BF00BF67
:103C000000BF00BF00BF0398401E26490870084649
:103C1000007800EB8000244931F8100000B22149FF
:103C2000097801EB8101204A02EB410108819DF8EE
:103C300001009DF8001040EA01201A49097801EBC3
:103C4000810122F811009DF803009DF8021040EA5E
:103C5000012000B21349097801EB810102EB410117
:103C600048809DF805009DF8041040EA012000B24C
:103C70000C49097801EB810102EB410188809DF834
:103C800006000849097801EB810102EB41018871C6
:103C900000E000BF00BF00BF5CE70000006800401C
:103CA000747A0020EE010020FC79002070477047F4
:103CB000704770B5044694F82000012822D10220F4
:103CC00084F820002068006820F001002168086066
:103CD00000F01AFD05460DE000F016FD401B0A2815
:103CE00008D9606A40F400306062052084F8200042
:103CF000012070BD2068406800F001000028EBD171
:103D00006062F6E7606A40F4002060620120F0E73C
:103D1000704770477047704770477047704710B5DD
:103D200004460CB9012010BD607920B90020207133
:103D3000204600F005F8012060710020F3E7000044
:103D400008B50A4A016891420FD100BF00210091D5
:103D50000749096841F48051054A11601146096814
:103D600001F48051009100BF00BF08BD0030024047
:103D700030380240F0B50346002603B109B90120EE
:103D8000F0BD00BF5879012801D10220F8E70120D9
:103D9000587100BF022018711868046802F01007FB
:103DA00040F6FE70B8408443D1E9000740EA0705B9
:103DB00002F0100005FA00F0044318680460186867
:103DC000006802F0100CC02707FA0CF7B8431F6810
:103DD00038600120187100BF0020587100BF3046C4
:103DE000CEE710B504460CB9012010BD207920B9EA
:103DF00000206071204600F009F8022020710020A8
:103E00002061012020710020EFE7000010B586B08E
:103E10000446142101A8FCF7C1FB19492068884217
:103E20002BD100BF002000901648006840F00050E1
:103E3000144908600846006800F00050009000BF78
:103E400000BF00BF002000900E481038006840F00E
:103E500001000C49103908600846006800F00100B4
:103E6000009000BF00BF202001900320029000209E
:103E7000039001A9044800F047FB06B010BD000004
:103E800000740040403802400000024070B5044613
:103E9000A56D00F039FC064694F83500022808D0DC
:103EA0008020606500BF002084F8340000BF01203E
:103EB00070BD2068006820F0160021680860206846
:103EC000406920F0800021684861206C08B9A06C2E
:103ED00028B12068006820F0080021680860206888
:103EE000006820F001002168086010E000F00CFC80
:103EF000801B05280BD920206065032084F835003D
:103F000000BF002084F8340000BF0320D0E7206801
:103F1000006800F001000028E8D194F85C103F2010
:103F20008840A860012084F8350000BF002084F894
:103F3000340000BF00BFBBE7014691F835000228FE
:103F400003D08020486501207047052081F83500A6
:103F50000868006820F001000A6810600020F3E79C
:103F6000014691F835007047F8B5044600200090EE
:103F70008C4800684FF41651B0FBF1F7A56D2E6820
:103F800094F85C1008208840304098B120680068A0
:103F900000F0040070B12068006820F0040021687F
:103FA000086094F85C1008208840A860606D40F0BC
:103FB0000100606594F85C1001208840304068B1D1
:103FC0002068406900F0800040B194F85C10012046
:103FD0008840A860606D40F00200606594F85C1055
:103FE00004208840304068B12068006800F002007A
:103FF00040B194F85C1004208840A860606D40F0E7
:104000000400606594F85C1010208840304078B35C
:104010002068006800F0080050B394F85C1010208D
:104020008840A8602068006800F4802080B1206883
:10403000006800F4002028B9206CC8B12046216C2B
:10404000884715E0A06C98B12046A16C88470FE026
:104050002068006800F4807028B92068006820F0AB
:10406000080021680860206C10B12046216C884748
:1040700094F85C10202088403040002865D02068EB
:10408000006800F0100000285FD094F85C10202039
:104090008840A86094F83500052828D12068006879
:1040A00020F01600216808602068406920F0800038
:1040B00021684861206C08B9A06C28B120680068AC
:1040C00020F008002168086094F85C103F208840C8
:1040D000A860012084F8350000BF002084F8340077
:1040E00000BF206D10B12046216D8847F8BD2068C3
:1040F000006800F4802080B12068006800F400208F
:1041000028B9606C10B12046616C88471DE0E06BF7
:10411000D8B12046E16B884717E02068006800F4BA
:10412000807068B92068006820F01000216808607D
:10413000012084F8350000BF002084F8340000BF5F
:10414000E06B10B12046E16B8847606D38B3606D5D
:1041500000F00100F0B1052084F835002068006807
:1041600020F001002168086000BF0098401C00900A
:10417000B84200D905E02068006800F0010000287E
:10418000F3D100BF012084F8350000BF002084F87F
:10419000340000BFE06C10B12046E16C884700BFDE
:1041A000A4E70000900000202DE9F041044600251E
:1041B00000F0AAFA074614B90120BDE8F081606A50
:1041C00000B100BF022084F8350000BF002084F851
:1041D000340000BF2068006820F0010021680860FA
:1041E0000AE000F091FAC01B052805D9202060657F
:1041F000032084F83500E0E72068006800F0010043
:104200000028EED12068056821480540D4E9010165
:104210000843E16808432169084361690843A169CB
:104220000843E1690843216A08430543606A04289A
:1042300003D1D4E90B0108430543206805602068D9
:10424000456925F00705606A0543606A04280DD1B9
:10425000A06A0543E06A48B12046FEF753FD28B145
:1042600040206065012084F83500A6E7206845619C
:104270002046FEF72DFD064694F85C103F2088404E
:10428000B06000206065012084F83500002094E7CC
:104290003F8010F02DE9F04704460D4616461F46B4
:1042A0004FF00008D4F8589000BF94F8340001286B
:1042B00002D10220BDE8F087012084F8340000BF5D
:1042C00094F83500012825D1022084F8350000201B
:1042D00060653B46324629462046FEF768FD94F865
:1042E0005C103F208840C9F808002068006840F052
:1042F000160021680860206C28B12068006840F032
:104300000800216808602068006840F0010021680A
:10431000086006E000BF002084F8340000BF4FF0C2
:1043200002084046C6E7000070B5044600F0ECF90C
:1043300006462546681C10B104480078054400BFB5
:1043400000F0E2F9801BA842FAD370BD8C00002077
:104350007047000010B500243D48006800F0F200EE
:10436000D8B13C480078012806D13A48C4684FF0DB
:10437000FF303849C86008E036480078022802D18A
:104380003448046901E033484469FEF7A7FD20463C
:1043900000F062F800202F4908702D48006800F0F6
:1043A000010000283ED001202949086029480078F2
:1043B000012825D127484068401E26494860084604
:1043C000406880B10846C4682046FFF7C1FF214815
:1043D000C068401C1F49C8600846C468017A20466E
:1043E000FEF70EFD1EE04FF0FF3004461949C8608D
:1043F00000200870FEF732FD2046FFF7A9FF11E00C
:1044000014480078022806D1FEF728FD11490869F2
:10441000FFF79EFF03E00F494869FFF799FF00206F
:104420000C4908700B48007888B90948001D0068DD
:1044300020F07F000649091D08600846006820F04A
:10444000807008600846006820F00070086010BDA9
:104450000C3C0240CC2800207047000010B50446F8
:10446000102C11D11A48007840F00100184908704A
:104470001848007840F00100164908701648007886
:1044800028B30DF05BF822E0202C0BD11348007804
:1044900040F00100114908700F480078B8B10DF0E4
:1044A0004DF814E0012C12D10EF0CCFC01280ED0F6
:1044B0000B490C4800680EF05DFA0948006830B1FD
:1044C000200709490860BFF34F8FBFF36F8F10BDFE
:1044D0004E0200204F020020500200204D0200201A
:1044E000540200202802002004ED00E010B504462C
:1044F00004480068204020B1024804602046FFF7CD
:10450000ADFF10BD143C0140F8B502460B46002536
:10451000002400200021D6E0012606FA01F51E68DD
:1045200006EA0504AC4274D11E7906F00306012E9A
:1045300004D01E7906F00306022E13D190684F00B6
:104540000326BE40B0434F00DE68BE40304390605B
:10455000506801268E40B0431E79C6F300168E4087
:10456000304350601E7906F00306032E09D0D06850
:104570004F000326BE40B0434F009E68BE4030430C
:10458000D0601E7906F00306022E13D1CF0802F187
:10459000200656F827004E07F70E0F26BE40B04300
:1045A0004F07FF0E1E69BE403043CF0802F12006C0
:1045B00046F8270010684F000326BE40B0431E791E
:1045C00006F003064F00BE40304310605E6806F4FC
:1045D0004036002E76D000BF002600963C4E36684E
:1045E00046F480463A4F3E603E46366806F48046C2
:1045F000009600BF00BF374E8F0856F827008E0781
:10460000370F0F26BE40B043334EB24202D10026D0
:1046100024E057E0314EB24201D101261EE0304E77
:10462000B24201D1022619E02E4EB24201D1032638
:1046300014E02D4EB24201D104260FE02B4EB242BF
:1046400001D105260AE02A4EB24201D1062605E034
:10465000284EB24201D1072600E008268F073F0FFF
:10466000BE4030431B4E8F0846F82700224E30686C
:10467000A0435E6806F4801606B120431E4E3060EB
:10468000361D3068A0435E6806F4001606B120436C
:10469000194E361D3060184E361F3068A0435E68D4
:1046A00006F4003606B12043134E361F3060361F25
:1046B0003068A0435E6806F4803606B120430E4E93
:1046C000083E3060491C1029FFF426AFF8BD0000F9
:1046D0004438024008380140000002400004024013
:1046E00000080240000C024000100240001402408A
:1046F00000180240001C0240083C01400AB18161E0
:1047000001E00B04836170470148006870470000B6
:1047100084000020704770472DE9F84F0446206858
:1047200047692068D0F80480002594F83E90C7F3CC
:10473000002040B1C8F3002028B145F001056FF416
:10474000807021684861C7F3402040B1C8F3002061
:1047500028B145F002056FF4007021684861C7F385
:10476000802070B3C8F3002058B3CA46B4F82AB00A
:1047700094F83D60206B0090BAF1200F0FD1BBF18F
:10478000000F0CD1212E06D0292E04D0282E06D1C0
:104790000098212803D1204604F024FA11E06FF498
:1047A00080602168486145F00405B9F1100F02D01E
:1047B000B9F1400F05D12068006840F4007021680D
:1047C0000860C7F3C02040B1C8F3002028B145F00D
:1047D00008056FF40060216848612DB1206C284302
:1047E0002064204603F0BEFCBDE8F88F2DE9F047B9
:1047F00005464FF0000928684668D5F82CA095F8C2
:104800003E7095F83D80102F01D0402F75D128685B
:10481000D0F818902868446904F0010060B9BAF52E
:104820002A0F02D0BAF12A4F01D1012000E0002066
:10483000012801D1BDE8F08704F0010048B1C6F3BA
:10484000402030B1284603F0F9FB284604F07FF8F9
:10485000B7E0C4F3C00030B1C6F3402018B1284619
:1048600003F02CFFADE0C4F3400030B1C6F34020AC
:1048700018B1284603F037FFA3E0C9F3800040B326
:104880002868406800F40060B0F5006FE0D0C4F321
:10489000C01048B1C6F3802030B1C4F3800018B90D
:1048A000284603F09FFE8CE0C4F380000028CFD0A0
:1048B000C6F340200028CBD0B8F1210F03D1284601
:1048C00003F040FE7DE0402F7BD1284604F08EF8B7
:1048D00077E02868406800F40060B0F5006F70D0A1
:1048E000C4F3801050B1C6F3802038B1C4F3800007
:1048F00020B9284603F0A4FD63E00BE0C4F3800078
:1049000000285ED0C6F3402000285AD0284603F085
:10491000FFFC56E0286C10B12868446904E0286860
:10492000D0F8189028684469C4F3400060B1C6F319
:10493000402048B1286C10B12868D0F8189049463A
:10494000284604F016F93CE0C4F3001030B1C6F379
:10495000402018B1284604F099F932E0B8F1210F4F
:1049600002D0B8F1290F16D1C4F3C01048B1C6F374
:10497000802030B1C4F3800018B9284604F0D6F87E
:104980001FE0C4F38000E0B1C6F34020C8B1284660
:1049900004F0BFF815E0C4F3801048B1C6F38020DE
:1049A00030B1C4F3800018B9284604F08FF808E04D
:1049B000C4F3800028B1C6F3402010B1284604F0AB
:1049C00078F800BF36E7704770B504460CB901208F
:1049D00070BD94F83D0028B9002084F83C002046C2
:1049E00000F0E0F8242084F83D002068006820F002
:1049F0000100216808602068006840F400402168D8
:104A000008602068006820F400402168086001F018
:104A100073FB05465C496068884206D85B4885425E
:104A200001D2012007E0002005E05948854201D26B
:104A3000012000E00020012800D1C9E75548B5FB5E
:104A4000F0F62068406820F03F003043216848605D
:104A50004D496068884201D8701C07E04FF4967099
:104A600070434FF47A71B0FBF1F0401C2168096A81
:104A700021F03F0108432168086243496068884289
:104A800014D8681E61684900B0FBF1F0401CC0F307
:104A90000B00042801D204203DE0681E6168490033
:104AA000B0FBF1F0401CC0F30B0034E0A06838B953
:104AB000681E616801EB4101B0FBF1F0401C0AE0A7
:104AC000681E616801EBC10202EB0111B0FBF1F05D
:104AD000401C40F48040C0F30B0008B901201AE0EC
:104AE000A06848B9681E616801EB4101B0FBF1F0B4
:104AF000401CC0F30B000CE0681E616801EBC102B2
:104B000002EB0111B0FBF1F0401CC0F30B0040F4CC
:104B1000804040F400402168C9694CF6FF7291431F
:104B200008432168C861D4E907010843216809687E
:104B300021F0C001084321680860D4E9031008434C
:104B40002168896848F2FF329143084321688860F0
:104B5000D4E9050108432168C96821F0FF01084331
:104B60002168C8602068006840F001002168086082
:104B700000202064202084F83D000020206384F879
:104B80003E0000BF24E70000A086010080841E00D4
:104B900000093D0040420F00704770477047704762
:104BA0007047000010B586B00446142101A8FBF739
:104BB000F5FC7349206888427DD100BF0020009039
:104BC0007048006840F020006E49086008460068A0
:104BD00000F02000009000BF00BF032001901220D1
:104BE000029000200390032004900420059001A966
:104BF0006548FFF789FC00BF002000906148103035
:104C0000006840F480005F49103108600846006881
:104C100000F48000009000BF00BF5C485C49086061
:104C20004FF060604860002159488160C1604FF4D6
:104C300080610161002141618161C1610162416264
:104C4000FFF7B2FA08B1FEF7D8F800BF5048A063EA
:104C5000846300BF4D4878304E4908604FF0606073
:104C6000486040214B4881600021C1604FF4806161
:104C70000161002141618161C16101624162FFF70F
:104C800093FA08B1FEF7B9F800BF42486063846345
:104C900000BF00220521212000F050F9212000F062
:104CA00039F900220521222000F048F9222000F0E5
:104CB00031F962E0FFE73849206888425DD100BFE2
:104CC000002000902F48006840F004002D49086043
:104CD0000846006800F00400009000BF00BF00BF5D
:104CE000002000900846006840F001000860084677
:104CF000006800F00100009000BF00BF481501905F
:104D000012200290002003900320049004200590BC
:104D100001A92248FFF7F8FB4FF4807001901220A0
:104D2000029000200390032004900420059001A924
:104D30001B48FFF7E9FB00BF00200090114810302E
:104D4000006840F400000F49103108600846006810
:104D500000F40000009000BF00BF002205214820A1
:104D600000F0ECF8482000F0D5F800220521492099
:104D700000F0E4F8492000F0CDF806B010BD0000C6
:104D800000580040303802400014024040600240A9
:104D90002406002084060020005C00400008024039
:104DA00000000240704770470348006803490978D3
:104DB0000844014908607047840000208C000020EE
:104DC00010B50D48006840F400700B4908600846B3
:104DD000006840F4806008600846006840F4807015
:104DE0000860032000F0E8F80F2000F007F800F05A
:104DF0005FF8002010BD0000003C02402DE9F041AA
:104E000088B004460027B84600BF00200190234820
:104E1000006840F48070214908600846006800F48A
:104E20008070019000BF00BF02A903A801F03CF907
:104E3000069F1FB901F060F9054602E001F05CF938
:104E400045001748B5FBF0F0A0F1010815481649D8
:104E5000086040F2E7311448C160C0F804800021C6
:104E600001618160816102F0A1F8064696B90E48A1
:104E700002F050F906466EB92D2000F04BF8102CC8
:104E800007D2002221462D2000F058F80748046080
:104E900000E00126304608B0BDE8F081403802400D
:104EA00040420F000020004084280020880000209D
:104EB00008B500BF002000901548006840F480400D
:104EC000134908600846006800F48040009000BF65
:104ED00000BF00BF00200090081F006840F0805015
:104EE000091F08600846006800F08050009000BF6D
:104EF00000BF00220F21901E00F020F800220621A2
:104F0000042000F01BF8042000F004F808BD0000A5
:104F1000443802400146084600280DDB00BF00BFB0
:104F200000F01F0301229A4043099B0003F1E02394
:104F3000C3F8002100BF00BF00BF70472DE9F05F3C
:104F400080460D46164600270BF0F8FA074639460C
:104F50002A46334601F00700C0F1070ABAF1040FF0
:104F600002D94FF0040A01E0C0F1070AD14600F16E
:104F7000040ABAF1070F02D24FF0000A01E0A0F1D3
:104F8000030AD4464FF0010A0AFA09FAAAF1010A03
:104F90000AEA020A0AFA0CFA4FF0010B0BFA0CFBB0
:104FA000ABF1010B0BEA030B4AEA0B042146404626
:104FB0000BF0CCFABDE8F09F00BF00F00702064BF3
:104FC00019684FF6FF031940044B0B4343EA0221D3
:104FD000014B196000BF70470CED00E00000FA05BE
:104FE000704702461068416200207047F0B50346E2
:104FF00015461868446A21B944EA05401E68B06243
:1050000019E01868806A04EB1044002208E0186870
:1050100000F5827050F8220004EB1044501CC2B21C
:10502000481E9042F3D844EA0547186800F582709C
:105030004E1E40F826700020F0BD10B50446D4F88E
:10504000E00409F0B6FD10BD70B504460D4605EB51
:10505000C50304F1140101EB8301CA682946D4F8A1
:10506000E00409F099FC70BD70B504460D4605EBEF
:10507000C50304F5157101EB8301CA682946D4F80C
:10508000E00409F011FD70BD10B50446D4F8E00449
:1050900009F092FD10BD2DE9F04104460D4605F0E2
:1050A0008000802808D105F00F0000EBC00104F15A
:1050B000140000EB810607E005F00F0000EBC001D3
:1050C00004F5157000EB8106314620680AF0CAFF2E
:1050D00007463846BDE8F08170B504460E4606F036
:1050E000800080280AD106F00F0000EBC00104F117
:1050F000140000EB81050120687009E006F00F0044
:1051000000EBC00104F5157000EB8105002068700C
:1051100006F00F00287000BF94F89404012801D114
:10512000022070BD012084F8940400BF2946206845
:105130000AF026FB00BF002084F8940400BF00BFE3
:10514000EFE770B504460E4606F00F00217988425D
:1051500001D9012070BD06F0800080280AD106F038
:105160000F0000EBC00104F1140000EB81050120E9
:10517000687009E006F00F0000EBC00104F515703F
:1051800000EB8105002068700020A87006F00F0079
:10519000287000BF94F89404012801D10220D9E7B7
:1051A000012084F8940400BF294620680AF0E6FC38
:1051B00000BF002084F8940400BF00BFCAE7024685
:1051C00001F00F0000EBC00302F5157000EB830047
:1051D000406970472DE9F04705460E4690461F4648
:1051E0004FF0000906F0800080280AD106F00F0079
:1051F00000EBC00105F1140000EB81040120607098
:1052000009E006F00F0000EBC00105F5157000EB9A
:1052100081040020607006F00F002070C8F30A00BF
:10522000A0602771607808B120786083022F01D1D7
:105230000020607100BF95F89404012802D102207B
:10524000BDE8F087012085F8940400BF2146286856
:105250000AF0A2F900BF002085F8940400BF484678
:10526000EEE72DE9F04105460E461746984606F052
:105270000F0000EBC00105F5157000EB8104E7603D
:10528000C4F8108000206061607006F00F0020708C
:10529000A879012800D1E761AA79214628680AF097
:1052A00001FD0020BDE8F08170B504460D4605F013
:1052B0000F002179884201D9012070BD05F08000DE
:1052C00080280AD105F00F0000EBC00104F11400A2
:1052D00000EB81060120707007E005EBC50104F5C5
:1052E000157000EB8106002070700120B07005F091
:1052F0000F00307000BF94F89404012801D10220FF
:10530000DBE7012084F8940400BF314620680AF0EE
:105310007CFC05F00F0028B9A17904F29C422068BA
:105320000AF0F4FB00BF002084F8940400BF00BF23
:10533000C3E72DE9F04105460E461746984606F0AC
:105340000F0000EBC00105F1140000EB8104E760E1
:10535000C4F81080002060610120607006F00F002A
:105360002070A879012800D1E761AA792146286830
:105370000AF098FC0020BDE8F0812DE9FE4F0446BC
:10538000D4F800B05E4620680AF04EFF002874D1C1
:1053900020680AF088FF08B9BDE8FE8F40F60800D3
:1053A0008059C0F30D20C4F8D40420680AF07BFFB4
:1053B00000F00200022805D12068406900F00200D8
:1053C0002168486120680AF06EFF00F01000102884
:1053D00045D12068806920F0100021688861DBF8E1
:1053E000209009F00F0000EBC00104F5157000EBF0
:1053F000810AC9F3434002281AD147F6F07009EA3E
:10540000000030B3C9F30A125846DAF80C100AF05B
:105410004FFFC9F30A11DAF80C000844CAF80C006F
:10542000C9F30A11DAF814000844CAF8140010E0AD
:10543000C9F3434006280CD1082204F29C41584687
:105440000AF036FFC9F30A11DAF814000844CAF862
:1054500014002068806940F010002168886120688D
:105460000AF021FF00F40020B0F5002F7BD10025C9
:1054700020680AF0E8FE029072E0E1E2029800F093
:105480000100002868D0E9B220680AF0FFFE8046DB
:1054900008F0010048B1012106F5306000EB45102D
:1054A00081602946204604F0A7FD08F0080008287E
:1054B00009D1082106F5306000EB451081602946CE
:1054C000204604F067FD08F01000102805D11021D7
:1054D00006F5306000EB4510816008F002000228FC
:1054E00024D1DBF8140000F08000802807D140F6BA
:1054F0000400805940F4806140F60400815105EBBE
:10550000C50104F5157000EB810A9AF80300012823
:1055100006D100208AF80300E9B2204600F09BFA89
:10552000022106F5306000EB4510816008F0200094
:10553000202805D1202106F5306000EB4510816060
:1055400008F40050B0F5005F06D14FF4005106F5A5
:10555000306000EB451081606D1C0298400802909D
:10556000029800288AD120680AF09DFE00F480206D
:10557000B0F5802F7DD120680AF05BFE02900025F7
:105580009AE0029800F00100002873D0E9B2206888
:105590000AF063FE804608F00100F0B305F00F0149
:1055A00001208840019040F634008159019821EA99
:1055B000000040F634018851012106F5106000EB2F
:1055C00045108160A079012824D105EBC50104F1C3
:1055D000140000EB810005EBC502C16804F1140062
:1055E00000EB82008068014405EBC50204F1140061
:1055F00000EB8200C1606DB905EBC50104F1140038
:1056000000EB8100006928B904F29C420121206866
:105610000AF07CFAE9B2204600E001E0FFF714FD51
:1056200008F00800082805D1082106F5106000EBF5
:105630004510816008F01000102805D1102106F5F2
:10564000106000EB4510816008F04000402805D153
:10565000402106F5106000EB4510816008F0020063
:1056600002281DD1294658460AF0A1FD05EBC501C7
:1056700001E025E01CE004F1140000EB810A9AF837
:105680000300012806D100208AF80300E9B2204671
:1056900000F0D8F9022106F5106000EB451081609A
:1056A00008F08000802803D12946204604F046FDFA
:1056B0006D1C029840080290029800287FF461AFA8
:1056C00020680AF0F0FD00F00040B0F1004F1CD15E
:1056D00040F60400805920F0010140F60400815199
:1056E00094F8CC04012807D1002084F8CC040021D0
:1056F0002046FFF775FC02E0204600F0D1FA206852
:10570000406900F000402168486120680AF0CBFD44
:1057100000F40060B0F5006F0ED140F6080080592B
:1057200000F0010010B1204600F012FB2068406933
:1057300000F400602168486120680AF0B4FD00F4BC
:105740008050B0F5805F7ED140F60400805920F093
:10575000010140F604008151102120680AF027FD64
:10576000002732E04FF67F3106F5106000EB47105E
:10577000816006F5106000EB4710006820F400110E
:1057800006F5106000EB471001604FF67F3106F51B
:10579000306000EB4710816006F5306000EB471089
:1057A000006820F4001106F5306000EB471001603E
:1057B00006F5306000EB4710006840F0006106F528
:1057C000306000EB471001607F1C2079B842C9D8D7
:1057D00040F61C00805940F0011140F61C00815138
:1057E000E07B70B1D6F8840840F00B01C6F884184D
:1057F00040F64400805940F00B0140F644008151CE
:105800000FE040F61400805942F22B01084340F6A5
:1058100014018851081F805940F00B014FF40160BA
:105820008151D6F8000820F4FE60C6F80008A1797E
:1058300004F29C4220680AF069F92068406900F48B
:105840008050216800E000E0486120680AF02BFDEC
:1058500000F40050B0F5005F17D1206809F004FF94
:1058600020680AF0CEFCE07100F040FC0090E27984
:10587000206800990AF09EFD204600F0F9F92068A2
:10588000406900F400502168486120680AF00BFD6F
:1058900000F00800082808D1204600F008FA206827
:1058A000406900F008002168486120680AF0FBFCAC
:1058B00000F08000802818D1DBF8180020F080006C
:1058C000CBF8180001250DE005EBC50104F51570B6
:1058D00000EB8100C078012803D1E9B22046FFF730
:1058E000DAFB6D1C2079A842EED820680AF0DBFCB8
:1058F00000F48010B0F5801F2DD1012522E006F5BF
:10590000106000EB4510D0F8009005EBC50104F1E4
:10591000140000EB81000079012812D109F0004049
:10592000B0F1004F0DD1012105EBC50204F11400C7
:1059300000EB8200C170E8B240F080012046FFF722
:10594000AAFB6D1C2079A842D9D82068406900F4D0
:1059500080102168486120680AF0A5FC00F400105E
:10596000B0F5001F44D1012538E006F5306000EBAA
:105970004510D0F8009005EBC50104F5157000EB5B
:1059800081000079012828D109F00040B0F1004FD2
:1059900023D194F8D40400F00100C9F300418842F7
:1059A0001BD1012105EBC50204F5157000EB820047
:1059B000C170DBF8180040F08000CBF81800DBF86D
:1059C000140000F0800040B940F60400805940F413
:1059D000007140F60400815103E06D1C2079A8425B
:1059E000C3D800BF2068406900F4001021684861F6
:1059F00020680AF058FC00F08040B0F1804F08D1D8
:105A00002046FFF71AFB2068406900F080402168BB
:105A1000486120680AF047FC00F0040004280FD118
:105A20002068D0F8049009F00400042802D1204630
:105A3000FFF72AFB2068406840EA090021684860B7
:105A400000BFA9E470B504460D462946D4F8E00429
:105A500009F01EF970BD70B504460D462946D4F80C
:105A6000E00409F039F970BDF8B504460CB901201D
:105A7000F8BD266894F8950428B9002084F89404A9
:105A8000204600F0A1F8032084F89504B6F1A04F59
:105A900001D10021A17120680AF030F8207C8DF836
:105AA000000094E80F0009F0F3FD20B1022084F813
:105AB00095040120DCE7002120680AF029FC20B1D0
:105AC000022084F895040120D2E7002531E001216D
:105AD00005EBC50204F1140000EB8200417005EBF8
